{"abi":[{"type":"fallback","stateMutability":"payable"},{"type":"receive","stateMutability":"payable"},{"type":"function","name":"allowance","inputs":[{"name":"","type":"address","internalType":"address"},{"name":"","type":"address","internalType":"address"}],"outputs":[{"name":"","type":"uint256","internalType":"uint256"}],"stateMutability":"view"},{"type":"function","name":"approve","inputs":[{"name":"spender","type":"address","internalType":"address"},{"name":"wad","type":"uint256","internalType":"uint256"}],"outputs":[{"name":"","type":"bool","internalType":"bool"}],"stateMutability":"nonpayable"},{"type":"function","name":"balanceOf","inputs":[{"name":"","type":"address","internalType":"address"}],"outputs":[{"name":"","type":"uint256","internalType":"uint256"}],"stateMutability":"view"},{"type":"function","name":"decimals","inputs":[],"outputs":[{"name":"","type":"uint8","internalType":"uint8"}],"stateMutability":"view"},{"type":"function","name":"deposit","inputs":[],"outputs":[],"stateMutability":"payable"},{"type":"function","name":"name","inputs":[],"outputs":[{"name":"","type":"string","internalType":"string"}],"stateMutability":"view"},{"type":"function","name":"symbol","inputs":[],"outputs":[{"name":"","type":"string","internalType":"string"}],"stateMutability":"view"},{"type":"function","name":"totalSupply","inputs":[],"outputs":[{"name":"","type":"uint256","internalType":"uint256"}],"stateMutability":"view"},{"type":"function","name":"transfer","inputs":[{"name":"to","type":"address","internalType":"address"},{"name":"wad","type":"uint256","internalType":"uint256"}],"outputs":[{"name":"","type":"bool","internalType":"bool"}],"stateMutability":"nonpayable"},{"type":"function","name":"transferFrom","inputs":[{"name":"from","type":"address","internalType":"address"},{"name":"to","type":"address","internalType":"address"},{"name":"wad","type":"uint256","internalType":"uint256"}],"outputs":[{"name":"","type":"bool","internalType":"bool"}],"stateMutability":"nonpayable"},{"type":"function","name":"withdraw","inputs":[{"name":"wad","type":"uint256","internalType":"uint256"}],"outputs":[],"stateMutability":"nonpayable"},{"type":"event","name":"Approval","inputs":[{"name":"owner","type":"address","indexed":true,"internalType":"address"},{"name":"spender","type":"address","indexed":true,"internalType":"address"},{"name":"value","type":"uint256","indexed":false,"internalType":"uint256"}],"anonymous":false},{"type":"event","name":"Deposit","inputs":[{"name":"to","type":"address","indexed":true,"internalType":"address"},{"name":"value","type":"uint256","indexed":false,"internalType":"uint256"}],"anonymous":false},{"type":"event","name":"Transfer","inputs":[{"name":"from","type":"address","indexed":true,"internalType":"address"},{"name":"to","type":"address","indexed":true,"internalType":"address"},{"name":"value","type":"uint256","indexed":false,"internalType":"uint256"}],"anonymous":false},{"type":"event","name":"Withdrawal","inputs":[{"name":"from","type":"address","indexed":true,"internalType":"address"},{"name":"value","type":"uint256","indexed":false,"internalType":"uint256"}],"anonymous":false}],"bytecode":{"object":"0x60808060405234601557610701908161001a8239f35b5f80fdfe60806040526004361015610059575b361561004f5760405162461bcd60e51b8152602060048201526013602482015272574554483a20757365206465706f736974282960681b6044820152606490fd5b61005761064b565b005b5f3560e01c806306fdde03146103eb578063095ea7b31461037257806318160ddd1461035757806323b872dd146103285780632e1a7d4d146101ff578063313ce567146101e457806370a08231146101ad57806395d89b411461016f578063a9059cbb1461013d578063d0e30db01461012a5763dd62ed3e0361000e5734610126576040366003190112610126576100ef61047e565b6100f7610494565b6001600160a01b039182165f908152600160209081526040808320949093168252928352819020549051908152f35b5f80fd5b5f3660031901126101265761005761064b565b3461012657604036600319011261012657602061016561015b61047e565b6024359033610524565b6040519015158152f35b34610126575f366003190112610126576101a961018c604061042e565b60048152630ae8aa8960e31b602082015260405191829182610454565b0390f35b34610126576020366003190112610126576001600160a01b036101ce61047e565b165f525f602052602060405f2054604051908152f35b34610126575f36600319011261012657602060405160128152f35b34610126576020366003190112610126575f8080806004353382528160205261022e81604084205410156104aa565b33825281602052604082206102448282546104f6565b90556040518181527f7fcf532c15f0a6db0bd6d0e038bea71d30d808c7d98cb3bf7268a95bf5081b6560203392a2816040518281525f5160206106ac5f395f51905f5260203392a3335af13d15610323573d67ffffffffffffffff811161030f576102b8601f8201601f191660200161042e565b9081525f60203d92013e5b156102ca57005b60405162461bcd60e51b815260206004820152601960248201527f574554483a20455448207472616e73666572206661696c6564000000000000006044820152606490fd5b634e487b7160e01b5f52604160045260245ffd5b6102c3565b3461012657606036600319011261012657602061016561034661047e565b61034e610494565b60443591610524565b34610126575f36600319011261012657602047604051908152f35b346101265760403660031901126101265761038b61047e565b335f8181526001602090815260408083206001600160a01b03909516808452948252918290206024359081905591519182527f8c5be1e5ebec7d5bd14f71427d1e84f3dd0314c0f7b2291e5b200ac8c7c3b92591a3602060405160018152f35b34610126575f366003190112610126576101a9610408604061042e565b600d81526c2bb930b83832b21022ba3432b960991b602082015260405191829182610454565b6040519190601f01601f1916820167ffffffffffffffff81118382101761030f57604052565b602060409281835280519182918282860152018484015e5f828201840152601f01601f1916010190565b600435906001600160a01b038216820361012657565b602435906001600160a01b038216820361012657565b156104b157565b60405162461bcd60e51b815260206004820152601a60248201527f574554483a20696e73756666696369656e742062616c616e63650000000000006044820152606490fd5b9190820391821161050357565b634e487b7160e01b5f52601160045260245ffd5b9190820180921161050357565b60018060a01b031690815f525f6020526105448360405f205410156104aa565b3382036105a0575b60205f5160206106ac5f395f51905f5291835f525f825260405f206105728682546104f6565b905560018060a01b031693845f525f825260405f20610592828254610517565b9055604051908152a3600190565b5f828152600160208181526040808420338552909152909120549081016105c8575b5061054c565b838110610606575f5160206106ac5f395f51905f52916105ea856020936104f6565b5f858152600184526040808220338352855290205591506105c2565b60405162461bcd60e51b815260206004820152601c60248201527f574554483a20696e73756666696369656e7420616c6c6f77616e6365000000006044820152606490fd5b335f525f60205260405f20610661348254610517565b90556040513481527fe1fffcc4923d04b559f4d29a8bfc6cda04eb5b0d3c460751c2402c5c5cc9109c60203392a26040513481525f5f5160206106ac5f395f51905f5260203393a356feddf252ad1be2c89b69c2b068fc378daa952ba7f163c4a11628f55a4df523b3efa264697066735822122087e2fe225448e2866ed5fcc234c6bba3a8eec0f3b574bdf255716de177e9275964736f6c634300081e0033","linkReferences":{}},"methodIdentifiers":{"allowance(address,address)":"dd62ed3e","approve(address,uint256)":"095ea7b3","balanceOf(address)":"70a08231","decimals()":"313ce567","deposit()":"d0e30db0","name()":"06fdde03","symbol()":"95d89b41","totalSupply()":"18160ddd","transfer(address,uint256)":"a9059cbb","transferFrom(address,address,uint256)":"23b872dd","withdraw(uint256)":"2e1a7d4d"},"id":32}