{"abi":[{"type":"constructor","inputs":[{"name":"_factory","type":"address","internalType":"address"},{"name":"_WETH","type":"address","internalType":"address"}],"stateMutability":"nonpayable"},{"type":"receive","stateMutability":"payable"},{"type":"function","name":"WETH","inputs":[],"outputs":[{"name":"","type":"address","internalType":"address"}],"stateMutability":"view"},{"type":"function","name":"addLiquidity","inputs":[{"name":"tokenA","type":"address","internalType":"address"},{"name":"tokenB","type":"address","internalType":"address"},{"name":"amountADesired","type":"uint256","internalType":"uint256"},{"name":"amountBDesired","type":"uint256","internalType":"uint256"},{"name":"amountAMin","type":"uint256","internalType":"uint256"},{"name":"amountBMin","type":"uint256","internalType":"uint256"},{"name":"to","type":"address","internalType":"address"},{"name":"deadline","type":"uint256","internalType":"uint256"}],"outputs":[{"name":"amountA","type":"uint256","internalType":"uint256"},{"name":"amountB","type":"uint256","internalType":"uint256"},{"name":"liquidity","type":"uint256","internalType":"uint256"}],"stateMutability":"nonpayable"},{"type":"function","name":"addLiquidityETH","inputs":[{"name":"token","type":"address","internalType":"address"},{"name":"amountTokenDesired","type":"uint256","internalType":"uint256"},{"name":"amountTokenMin","type":"uint256","internalType":"uint256"},{"name":"amountETHMin","type":"uint256","internalType":"uint256"},{"name":"to","type":"address","internalType":"address"},{"name":"deadline","type":"uint256","internalType":"uint256"}],"outputs":[{"name":"amountToken","type":"uint256","internalType":"uint256"},{"name":"amountETH","type":"uint256","internalType":"uint256"},{"name":"liquidity","type":"uint256","internalType":"uint256"}],"stateMutability":"payable"},{"type":"function","name":"factory","inputs":[],"outputs":[{"name":"","type":"address","internalType":"address"}],"stateMutability":"view"},{"type":"function","name":"getAmountIn","inputs":[{"name":"amountOut","type":"uint256","internalType":"uint256"},{"name":"reserveIn","type":"uint256","internalType":"uint256"},{"name":"reserveOut","type":"uint256","internalType":"uint256"}],"outputs":[{"name":"amountIn","type":"uint256","internalType":"uint256"}],"stateMutability":"pure"},{"type":"function","name":"getAmountOut","inputs":[{"name":"amountIn","type":"uint256","internalType":"uint256"},{"name":"reserveIn","type":"uint256","internalType":"uint256"},{"name":"reserveOut","type":"uint256","internalType":"uint256"}],"outputs":[{"name":"amountOut","type":"uint256","internalType":"uint256"}],"stateMutability":"pure"},{"type":"function","name":"getAmountsIn","inputs":[{"name":"amountOut","type":"uint256","internalType":"uint256"},{"name":"path","type":"address[]","internalType":"address[]"}],"outputs":[{"name":"amounts","type":"uint256[]","internalType":"uint256[]"}],"stateMutability":"view"},{"type":"function","name":"getAmountsOut","inputs":[{"name":"amountIn","type":"uint256","internalType":"uint256"},{"name":"path","type":"address[]","internalType":"address[]"}],"outputs":[{"name":"amounts","type":"uint256[]","internalType":"uint256[]"}],"stateMutability":"view"},{"type":"function","name":"quote","inputs":[{"name":"amountA","type":"uint256","internalType":"uint256"},{"name":"reserveA","type":"uint256","internalType":"uint256"},{"name":"reserveB","type":"uint256","internalType":"uint256"}],"outputs":[{"name":"amountB","type":"uint256","internalType":"uint256"}],"stateMutability":"pure"},{"type":"function","name":"removeLiquidity","inputs":[{"name":"tokenA","type":"address","internalType":"address"},{"name":"tokenB","type":"address","internalType":"address"},{"name":"liquidity","type":"uint256","internalType":"uint256"},{"name":"amountAMin","type":"uint256","internalType":"uint256"},{"name":"amountBMin","type":"uint256","internalType":"uint256"},{"name":"to","type":"address","internalType":"address"},{"name":"deadline","type":"uint256","internalType":"uint256"}],"outputs":[{"name":"amountA","type":"uint256","internalType":"uint256"},{"name":"amountB","type":"uint256","internalType":"uint256"}],"stateMutability":"nonpayable"},{"type":"function","name":"removeLiquidityETH","inputs":[{"name":"token","type":"address","internalType":"address"},{"name":"liquidity","type":"uint256","internalType":"uint256"},{"name":"amountTokenMin","type":"uint256","internalType":"uint256"},{"name":"amountETHMin","type":"uint256","internalType":"uint256"},{"name":"to","type":"address","internalType":"address"},{"name":"deadline","type":"uint256","internalType":"uint256"}],"outputs":[{"name":"amountToken","type":"uint256","internalType":"uint256"},{"name":"amountETH","type":"uint256","internalType":"uint256"}],"stateMutability":"nonpayable"},{"type":"function","name":"removeLiquidityETHWithPermit","inputs":[{"name":"token","type":"address","internalType":"address"},{"name":"liquidity","type":"uint256","internalType":"uint256"},{"name":"amountTokenMin","type":"uint256","internalType":"uint256"},{"name":"amountETHMin","type":"uint256","internalType":"uint256"},{"name":"to","type":"address","internalType":"address"},{"name":"deadline","type":"uint256","internalType":"uint256"},{"name":"approveMax","type":"bool","internalType":"bool"},{"name":"v","type":"uint8","internalType":"uint8"},{"name":"r","type":"bytes32","internalType":"bytes32"},{"name":"s","type":"bytes32","internalType":"bytes32"}],"outputs":[{"name":"amountToken","type":"uint256","internalType":"uint256"},{"name":"amountETH","type":"uint256","internalType":"uint256"}],"stateMutability":"nonpayable"},{"type":"function","name":"removeLiquidityWithPermit","inputs":[{"name":"tokenA","type":"address","internalType":"address"},{"name":"tokenB","type":"address","internalType":"address"},{"name":"liquidity","type":"uint256","internalType":"uint256"},{"name":"amountAMin","type":"uint256","internalType":"uint256"},{"name":"amountBMin","type":"uint256","internalType":"uint256"},{"name":"to","type":"address","internalType":"address"},{"name":"deadline","type":"uint256","internalType":"uint256"},{"name":"approveMax","type":"bool","internalType":"bool"},{"name":"v","type":"uint8","internalType":"uint8"},{"name":"r","type":"bytes32","internalType":"bytes32"},{"name":"s","type":"bytes32","internalType":"bytes32"}],"outputs":[{"name":"amountA","type":"uint256","internalType":"uint256"},{"name":"amountB","type":"uint256","internalType":"uint256"}],"stateMutability":"nonpayable"},{"type":"function","name":"swapETHForExactTokens","inputs":[{"name":"amountOut","type":"uint256","internalType":"uint256"},{"name":"path","type":"address[]","internalType":"address[]"},{"name":"to","type":"address","internalType":"address"},{"name":"deadline","type":"uint256","internalType":"uint256"}],"outputs":[{"name":"amounts","type":"uint256[]","internalType":"uint256[]"}],"stateMutability":"payable"},{"type":"function","name":"swapExactETHForTokens","inputs":[{"name":"amountOutMin","type":"uint256","internalType":"uint256"},{"name":"path","type":"address[]","internalType":"address[]"},{"name":"to","type":"address","internalType":"address"},{"name":"deadline","type":"uint256","internalType":"uint256"}],"outputs":[{"name":"amounts","type":"uint256[]","internalType":"uint256[]"}],"stateMutability":"payable"},{"type":"function","name":"swapExactETHForTokensSupportingFeeOnTransferTokens","inputs":[{"name":"amountOutMin","type":"uint256","internalType":"uint256"},{"name":"path","type":"address[]","internalType":"address[]"},{"name":"to","type":"address","internalType":"address"},{"name":"deadline","type":"uint256","internalType":"uint256"}],"outputs":[],"stateMutability":"payable"},{"type":"function","name":"swapExactTokensForETH","inputs":[{"name":"amountIn","type":"uint256","internalType":"uint256"},{"name":"amountOutMin","type":"uint256","internalType":"uint256"},{"name":"path","type":"address[]","internalType":"address[]"},{"name":"to","type":"address","internalType":"address"},{"name":"deadline","type":"uint256","internalType":"uint256"}],"outputs":[{"name":"amounts","type":"uint256[]","internalType":"uint256[]"}],"stateMutability":"nonpayable"},{"type":"function","name":"swapExactTokensForETHSupportingFeeOnTransferTokens","inputs":[{"name":"amountIn","type":"uint256","internalType":"uint256"},{"name":"amountOutMin","type":"uint256","internalType":"uint256"},{"name":"path","type":"address[]","internalType":"address[]"},{"name":"to","type":"address","internalType":"address"},{"name":"deadline","type":"uint256","internalType":"uint256"}],"outputs":[],"stateMutability":"nonpayable"},{"type":"function","name":"swapExactTokensForTokens","inputs":[{"name":"amountIn","type":"uint256","internalType":"uint256"},{"name":"amountOutMin","type":"uint256","internalType":"uint256"},{"name":"path","type":"address[]","internalType":"address[]"},{"name":"to","type":"address","internalType":"address"},{"name":"deadline","type":"uint256","internalType":"uint256"}],"outputs":[{"name":"amounts","type":"uint256[]","internalType":"uint256[]"}],"stateMutability":"nonpayable"},{"type":"function","name":"swapExactTokensForTokensSupportingFeeOnTransferTokens","inputs":[{"name":"amountIn","type":"uint256","internalType":"uint256"},{"name":"amountOutMin","type":"uint256","internalType":"uint256"},{"name":"path","type":"address[]","internalType":"address[]"},{"name":"to","type":"address","internalType":"address"},{"name":"deadline","type":"uint256","internalType":"uint256"}],"outputs":[],"stateMutability":"nonpayable"},{"type":"function","name":"swapTokensForExactETH","inputs":[{"name":"amountOut","type":"uint256","internalType":"uint256"},{"name":"amountInMax","type":"uint256","internalType":"uint256"},{"name":"path","type":"address[]","internalType":"address[]"},{"name":"to","type":"address","internalType":"address"},{"name":"deadline","type":"uint256","internalType":"uint256"}],"outputs":[{"name":"amounts","type":"uint256[]","internalType":"uint256[]"}],"stateMutability":"nonpayable"},{"type":"function","name":"swapTokensForExactTokens","inputs":[{"name":"amountOut","type":"uint256","internalType":"uint256"},{"name":"amountInMax","type":"uint256","internalType":"uint256"},{"name":"path","type":"address[]","internalType":"address[]"},{"name":"to","type":"address","internalType":"address"},{"name":"deadline","type":"uint256","internalType":"uint256"}],"outputs":[{"name":"amounts","type":"uint256[]","internalType":"uint256[]"}],"stateMutability":"nonpayable"}],"bytecode":{"object":"0x60c03461013d57601f61314338819003918201601f19168301916001600160401b0383118484101761014157808492604094855283398101031261013d57610052602061004b83610155565b9201610155565b9060805260a052604051612fd9908161016a82396080518181816101af015281816103f6015281816106200152818161073701528181610b6b01528181610ba501528181610c1501528181610e2d015281816110b1015281816111cf0152818161157a015281816116da0152818161178b015281816118c10152818161194e015281816119ee015281816125ca015281816129070152612d06015260a051818181601e0152818161017c015281816103bf0152818161075901528181610da8015281816110580152818161119f0152818161131d015281816115430152818161191a01526119c00152f35b5f80fd5b634e487b7160e01b5f52604160045260245ffd5b51906001600160a01b038216820361013d5756fe6080604052600436101561004e575b3615610018575f80fd5b61004c337f00000000000000000000000000000000000000000000000000000000000000006001600160a01b031614612092565b005b5f5f3560e01c806302751cec14611995578063054d50d41461117457806318cbafe5146118e55780631f00ca74146118a95780632195995c1461173c57806338ed1739146116c35780634a25d94a146114fd5780635c11d79514611492578063791ac947146112d75780637ff36ab51461117957806385f8c259146111745780638803dbee14611087578063ad5c464814611042578063ad615dec14611020578063b6f9de9514610d74578063baa2abde14610bd4578063c45a015514610b8f578063d06ca61f14610b53578063ded9382a146106e4578063e8e33700146105a8578063f305d7191461039d5763fb3bdb411461014b575061000e565b61016361015736611e60565b94909394421115611eac565b80156103895761017282611f3d565b6001600160a01b037f00000000000000000000000000000000000000000000000000000000000000008116916101aa91168214611f51565b6101e17f0000000000000000000000000000000000000000000000000000000000000000956101da368587611dc1565b9087612739565b946101f76101ee87611f9d565b5134101561201e565b8661020187611f9d565b51833b15610385578160049160405192838092630d0e30db60e41b8252885af1801561037a57610361575b505061023784611f3d565b836001101561034d579161025c60209261029b94610256858901611f3d565b916123e3565b9061026688611f9d565b5160405163a9059cbb60e01b81526001600160a01b0390931660048401526024830152909283919082908a9082906044820190565b03925af190811561034257916102c46102d19594926102cb946102ee9991610313575b50612092565b3691611dc1565b836125bf565b6102da81611f9d565b5134116102f2575b60405191829182611d3a565b0390f35b61030e61030861030183611f9d565b5134611ef8565b336120ec565b6102e2565b610335915060203d60201161033b575b61032d8183611d73565b81019061207a565b5f6102be565b503d610323565b6040513d88823e3d90fd5b634e487b7160e01b88526032600452602488fd5b8161036b91611d73565b61037657865f61022c565b8680fd5b6040513d84823e3d90fd5b5080fd5b634e487b7160e01b85526032600452602485fd5b6103e86103bd836103ad36611c41565b9793969097929192421115611eac565b7f00000000000000000000000000000000000000000000000000000000000000009534908786612cd9565b9490936104238561041a83867f00000000000000000000000000000000000000000000000000000000000000006123e3565b80953390612499565b6001600160a01b0316803b1561059957604051630d0e30db60e41b815284816004818a865af1801561059d57908591610584575b505060405163a9059cbb60e01b81526001600160a01b038416600482015260248101879052906020908290604490829088905af1908115610579576020926104aa869593602493879161055c5750612092565b6040516335313c2160e11b81526001600160a01b0391821660048201529586938492165af19081156105505790610518575b6102ee9150833411610506575b604051938493846040919493926060820195825260208201520152565b6105136103088534611ef8565b6104e9565b506020813d602011610548575b8161053260209383611d73565b81010312610544576102ee90516104dc565b5f80fd5b3d9150610525565b604051903d90823e3d90fd5b6105739150863d881161033b5761032d8183611d73565b8a6102be565b6040513d86823e3d90fd5b8161058e91611d73565b610599578387610457565b8380fd5b6040513d87823e3d90fd5b50346106e1576101003660031901126106e1576105c3611bff565b906105cc611c15565b60c4356001600160a01b038116908190036106df5791602081926024610656956105fa4260e4351015611eac565b61061060a435608435606435604435878d612cd9565b898561064f610644859c9598859e7f00000000000000000000000000000000000000000000000000000000000000006123e3565b978880943390612499565b3390612499565b6040516335313c2160e11b815260048101919091529485928391906001600160a01b03165af190811561055057906106ab575b6102ee9150604051938493846040919493926060820195825260208201520152565b506020813d6020116106d7575b816106c560209383611d73565b81010312610544576102ee9051610689565b3d91506106b8565b825b80fd5b50346106e1576101403660031901126106e1576106ff611bff565b60843591906024356001600160a01b03841684036106df5760c4359060a4358215158303610b4f5760e4359060ff82168203610b35577f0000000000000000000000000000000000000000000000000000000000000000917f0000000000000000000000000000000000000000000000000000000000000000946107848688866123e3565b9015610b48575f19905b6001600160a01b031690813b15610b445760405163d505accf60e01b815233600482015230602482015260448101919091526064810184905260ff9290921660848301526101043560a48301526101243560c48301528790829060e490829084905af18015610b3957918787928794610b19575b505091610829916108629461082460209542111561081f81611eac565b611eac565b6123e3565b6040516323b872dd60e01b81523360048201526001600160a01b0390911660248201819052604482019490945291829081906064820190565b038188865af1801561059d5791604091869493610afc575b50602482518097819363226bf2d160e21b83523060048401525af193841561037a5782908395610ac2575b506108b08285612beb565b506001600160a01b03858116911603610abc5793925b6044358510610a68576064358410610a145760405163a9059cbb60e01b602082019081526001600160a01b03881660248301526044820187905284928392909190839061092081606481015b03601f198101835282611d73565b51925af161092c6120ad565b816109e5575b50156109a0576001600160a01b0316803b1561038557818091602460405180948193632e1a7d4d60e01b83528860048401525af1801561037a5761098b575b505061097f816040946120ec565b82519182526020820152f35b610996828092611d73565b6106e15780610971565b60405162461bcd60e51b815260206004820152601f60248201527f5472616e7366657248656c7065723a205452414e534645525f4641494c4544006044820152606490fd5b80518015925082156109fa575b50505f610932565b610a0d925060208091830101910161207a565b5f806109f2565b60405162461bcd60e51b815260206004820152602660248201527f556e69737761705632526f757465723a20494e53554646494349454e545f425f604482015265105353d5539560d21b6064820152608490fd5b60405162461bcd60e51b815260206004820152602660248201527f556e69737761705632526f757465723a20494e53554646494349454e545f415f604482015265105353d5539560d21b6064820152608490fd5b926108c6565b9450506040843d604011610af4575b81610ade60409383611d73565b810103126103855760208451940151935f6108a5565b3d9150610ad1565b610b149060203d60201161033b5761032d8183611d73565b61087a565b610b27929450819350611d73565b610b3557848491875f610802565b8580fd5b6040513d89823e3d90fd5b8880fd5b849061078e565b8480fd5b50346106e1576102ee6102e2610b6836611e1c565b907f0000000000000000000000000000000000000000000000000000000000000000612338565b50346106e157806003193601126106e1576040517f00000000000000000000000000000000000000000000000000000000000000006001600160a01b03168152602090f35b50346106e15760e03660031901126106e157610bee611bff565b90610bf7611c15565b91610c00611c2b565b610c0e4260c4351015611eac565b610c3984837f00000000000000000000000000000000000000000000000000000000000000006123e3565b6040516323b872dd60e01b81523360048201526001600160a01b03909116602482018190526044803590830152919060208180606481015b038188875af1801561059d57604092869492602492610d57575b50835163226bf2d160e21b81526001600160a01b0390911660048201529586928391905af1938415610d4a5781938295610d0c575b50610ccb9083612beb565b506001600160a01b03928316921691909114159050610d06575b6064358110610a68576084358210610a145760409182519182526020820152f35b90610ce5565b935093506040833d604011610d42575b81610d2960409383611d73565b810103126106e157610ccb602084519401519490610cc0565b3d9150610d1c565b50604051903d90823e3d90fd5b610d6f9060203d60201161033b5761032d8183611d73565b610c8b565b50610d8f610d8136611e60565b949094929192421115611eac565b811561038957610d9e81611f3d565b6001600160a01b037f0000000000000000000000000000000000000000000000000000000000000000811691610dd691168214611f51565b803b15610b3557604051630d0e30db60e41b81528690818160048134875af1801561037a5761100b575b5050610e0b82611f3d565b8360011015610ff757610e838792610e51602093610e2a858801611f3d565b907f00000000000000000000000000000000000000000000000000000000000000006123e3565b60405163a9059cbb60e01b81526001600160a01b03909116600482015234602482015293849283919082906044820190565b03925af1801561034257610e9d9187916103135750612092565b5f198201828111610fe3576001600160a01b03610ec3610ebe838686611f19565b611f3d565b1692604051956370a0823160e01b875260208760248160018060a01b038516988960048301525afa968715610fd8578897610f9d575b5060209392610f2792610f19610ebe93610f14368489611dc1565b612901565b6001600160a01b0394611f19565b16916024604051809481936370a0823160e01b835260048301525afa908115610579578491610f69575b50610f6692610f5f91611ef8565b1015611fbe565b80f35b90506020813d602011610f95575b81610f8460209383611d73565b810103126105445751610f66610f51565b3d9150610f77565b9096506020939293813d602011610fd0575b81610fbc60209383611d73565b810103126105445751959192916020610ef9565b3d9150610faf565b6040513d8a823e3d90fd5b634e487b7160e01b86526011600452602486fd5b634e487b7160e01b87526032600452602487fd5b8161101591611d73565b610b3557855f610e00565b50346106e157602061103a61103436611c87565b91612b6b565b604051908152f35b50346106e157806003193601126106e1576040517f00000000000000000000000000000000000000000000000000000000000000006001600160a01b03168152602090f35b50346106e1576110a961109936611ceb565b9692949193959096421115611eac565b6110f56110e37f0000000000000000000000000000000000000000000000000000000000000000926110dc368789611dc1565b9084612739565b956110ed87611f9d565b51111561201e565b82156111605761110484611f3d565b9161110e85611f3d565b90846001101561114c5750926102c46102cb9361113a87946102ee9a9761025660206102e29b01611f3d565b61114389611f9d565b51913390612499565b634e487b7160e01b81526032600452602490fd5b634e487b7160e01b82526032600452602482fd5b611ca1565b5061118661015736611e60565b80156103895761119582611f3d565b6001600160a01b037f00000000000000000000000000000000000000000000000000000000000000008116916111cd91168214611f51565b7f00000000000000000000000000000000000000000000000000000000000000006112036111fc368587611dc1565b3483612338565b9586515f1981019081116112c3579061121f6112279289611faa565b511015611fbe565b8661123187611f9d565b51833b15610385578160049160405192838092630d0e30db60e41b8252885af1801561037a576112ae575b505061126784611f3d565b836001101561034d579161025c60209261128694610256858901611f3d565b03925af190811561034257916102c46102e29594926102cb946102ee99916103135750612092565b816112b891611d73565b61037657865f61125c565b634e487b7160e01b89526011600452602489fd5b50346106e1576112fa6112e936611ceb565b959095949394929192421115611eac565b5f19820182811161147e57610ebe611313918484611f19565b6001600160a01b037f00000000000000000000000000000000000000000000000000000000000000008116949161134c91168514611f51565b8215610ff75761135b82611f3d565b61136483611f3d565b846001101561146a579261139489969593610f149361138c61139d97610e2a60208701611f3d565b903390612499565b30923691611dc1565b6040516370a0823160e01b815230600482015292602084602481855afa93841561145f578394611425575b506113d590841015611fbe565b803b1561038557818091602460405180948193632e1a7d4d60e01b83528860048401525af1801561037a57611410575b5050610f66916120ec565b8161141a91611d73565b6106df57825f611405565b925092506020823d602011611457575b8161144260209383611d73565b81010312610544576113d585925193906113c8565b3d9150611435565b6040513d85823e3d90fd5b634e487b7160e01b89526032600452602489fd5b634e487b7160e01b87526011600452602487fd5b50346106e1576114b36114a436611ceb565b95909594919394421115611eac565b82156114e9576114c282611f3d565b6114cb83611f3d565b846001101561034d579061138c610e9d9392610e2a60208701611f3d565b634e487b7160e01b86526032600452602486fd5b50346106e15761152061150f36611ceb565b969493959096929192421115611eac565b5f1982018281116116af57610ebe611539918484611f19565b6001600160a01b037f00000000000000000000000000000000000000000000000000000000000000008116949161157291168514611f51565b6115af6115a57f0000000000000000000000000000000000000000000000000000000000000000926110dc368787611dc1565b966110ed88611f9d565b8215610389576115be82611f3d565b906115c883611f3d565b8460011015610ff7576115f7926115ee85936113949361025660206115fd9a9901611f3d565b6111438a611f9d565b856125bf565b82515f19810190811161169b576116149084611faa565b51813b156106df578291602483926040519485938492632e1a7d4d60e01b845260048401525af1801561037a57908291611686575b505081515f1981019190821161167257506102ee9261166b6102e29284611faa565b51906120ec565b634e487b7160e01b81526011600452602490fd5b8161169091611d73565b6106e157805f611649565b634e487b7160e01b83526011600452602483fd5b634e487b7160e01b85526011600452602485fd5b50346106e1576116d561109936611ceb565b61170c7f000000000000000000000000000000000000000000000000000000000000000091611705368688611dc1565b9083612338565b9485515f198101908111611728579061121f6110f59288611faa565b634e487b7160e01b84526011600452602484fd5b50346106e1576101603660031901126106e157611757611bff565b90611760611c15565b9160443561176c611c2b565b60e43560c4358115158203610b35576101043560ff81168103610376577f0000000000000000000000000000000000000000000000000000000000000000926117b68988866123e3565b90156118a2575f19905b6001600160a01b031690813b15610b445760405163d505accf60e01b815233600482015230602482015260448101919091526064810184905260ff9290921660848301526101243560a48301526101443560c48301528790829060e490829084905af18015610b3957918787928a94611886575b50509161184d91610c7194610824602095421115611eac565b6040516323b872dd60e01b81523360048201526001600160a01b0390911660248201819052604482019590955291829081906064820190565b611894929450819350611d73565b610b3557848791875f611834565b85906117c0565b50346106e1576102ee6102e26118be36611e1c565b907f0000000000000000000000000000000000000000000000000000000000000000612739565b50346106e1576118f761150f36611ceb565b5f1982018281116116af57610ebe611910918484611f19565b6001600160a01b037f00000000000000000000000000000000000000000000000000000000000000008116949161194991168514611f51565b6119797f000000000000000000000000000000000000000000000000000000000000000091611705368686611dc1565b9586515f19810190811161147e579061121f6115af9289611faa565b3461054457611a4b6119a636611c41565b9594919095939293421115926119bb84611eac565b6119e57f000000000000000000000000000000000000000000000000000000000000000094611eac565b6020611a1285857f00000000000000000000000000000000000000000000000000000000000000006123e3565b6040516323b872dd60e01b81523360048201526001600160a01b0390911660248201819052604482019390935296879081906064820190565b03815f855af1908115611b68575f96604092611be2575b50602482518098819363226bf2d160e21b83523060048401525af1948515611b68575f905f96611ba8575b50611a988484612beb565b506001600160a01b03848116911603611ba25794935b8510610a68578310610a145760405163a9059cbb60e01b602082019081526001600160a01b0387166024830152604482018690525f9283929091908390611af88160648101610912565b51925af1611b046120ad565b81611b73575b50156109a0576001600160a01b0316803b15610544575f8091602460405180948193632e1a7d4d60e01b83528760048401525af18015611b685760409461097f928492611b58575b506120ec565b5f611b6291611d73565b5f611b52565b6040513d5f823e3d90fd5b8051801592508215611b88575b505085611b0a565b611b9b925060208091830101910161207a565b8580611b80565b93611aae565b9550506040853d604011611bda575b81611bc460409383611d73565b8101031261054457602085519501519487611a8d565b3d9150611bb7565b611bfa9060203d60201161033b5761032d8183611d73565b611a62565b600435906001600160a01b038216820361054457565b602435906001600160a01b038216820361054457565b60a435906001600160a01b038216820361054457565b60c0906003190112610544576004356001600160a01b038116810361054457906024359060443590606435906084356001600160a01b0381168103610544579060a43590565b606090600319011261054457600435906024359060443590565b3461054457602061103a611cb436611c87565b916121ff565b9181601f840112156105445782359167ffffffffffffffff8311610544576020808501948460051b01011161054457565b60a06003198201126105445760043591602435916044359067ffffffffffffffff821161054457611d1e91600401611cba565b90916064356001600160a01b0381168103610544579060843590565b60206040818301928281528451809452019201905f5b818110611d5d5750505090565b8251845260209384019390920191600101611d50565b90601f8019910116810190811067ffffffffffffffff821117611d9557604052565b634e487b7160e01b5f52604160045260245ffd5b67ffffffffffffffff8111611d955760051b60200190565b9291611dcc82611da9565b93611dda6040519586611d73565b602085848152019260051b810191821161054457915b818310611dfc57505050565b82356001600160a01b038116810361054457815260209283019201611df0565b90604060031983011261054457600435916024359067ffffffffffffffff8211610544578060238301121561054457816024611e5d93600401359101611dc1565b90565b90608060031983011261054457600435916024359067ffffffffffffffff821161054457611e9091600401611cba565b90916044356001600160a01b0381168103610544579060643590565b15611eb357565b60405162461bcd60e51b815260206004820152601760248201527f556e69737761705632526f757465723a455850495245440000000000000000006044820152606490fd5b91908203918211611f0557565b634e487b7160e01b5f52601160045260245ffd5b9190811015611f295760051b0190565b634e487b7160e01b5f52603260045260245ffd5b356001600160a01b03811681036105445790565b15611f5857565b60405162461bcd60e51b815260206004820152601d60248201527f556e69737761705632526f757465723a20494e56414c49445f504154480000006044820152606490fd5b805115611f295760200190565b8051821015611f295760209160051b010190565b15611fc557565b60405162461bcd60e51b815260206004820152602b60248201527f556e69737761705632526f757465723a20494e53554646494349454e545f4f5560448201526a1514155517d05353d5539560aa1b6064820152608490fd5b1561202557565b60405162461bcd60e51b815260206004820152602760248201527f556e69737761705632526f757465723a204558434553534956455f494e50555460448201526617d05353d5539560ca1b6064820152608490fd5b90816020910312610544575180151581036105445790565b1561209957565b634e487b7160e01b5f52600160045260245ffd5b3d156120e7573d9067ffffffffffffffff8211611d9557604051916120dc601f8201601f191660200184611d73565b82523d5f602084013e565b606090565b5f9190829160405190612100602083611d73565b83825260208201915f36843751925af16121186120ad565b501561212057565b60405162461bcd60e51b815260206004820152602360248201527f5472616e7366657248656c7065723a204554485f5452414e534645525f46414960448201526213115160ea1b6064820152608490fd5b1561217857565b60405162461bcd60e51b815260206004820152602860248201527f556e697377617056324c6962726172793a20494e53554646494349454e545f4c604482015267495155494449545960c01b6064820152608490fd5b81810292918115918404141715611f0557565b81156121eb570490565b634e487b7160e01b5f52601260045260245ffd5b801561226157811592831580612258575b61221990612171565b6103e582029182046103e503611f055761223390826121ce565b926103e883029283046103e8141715611f05578101809111611f0557611e5d916121e1565b50801515612210565b60405162461bcd60e51b815260206004820152602b60248201527f556e697377617056324c6962726172793a20494e53554646494349454e545f4960448201526a1394155517d05353d5539560aa1b6064820152608490fd5b156122c157565b60405162461bcd60e51b815260206004820152601e60248201527f556e697377617056324c6962726172793a20494e56414c49445f5041544800006044820152606490fd5b9061231082611da9565b61231d6040519182611d73565b828152809261232e601f1991611da9565b0190602036910137565b9291926123496002855110156122ba565b6123538451612306565b9161235d83611f9d565b525f5b84515f198101908111611f05578110156123dd576001600160a01b036123868287611faa565b51169060018101808211611f05576001926123d6906123cf906123be906001600160a01b036123b5868d611faa565b51169088612f02565b906123c9868a611faa565b516121ff565b9186611faa565b5201612360565b50509150565b916123ed91612beb565b6040519060208201926001600160601b03199060601b1683526001600160601b03199060601b16603482015260288152612428604882611d73565b5190209060405191602083019160ff60f81b83526001600160601b03199060601b16602184015260358301527f661cd7b53f97d9a236aa55ba2f999ba943e196d5017547d53bfa76e9feda1224605583015260558252612489607583611d73565b905190206001600160a01b031690565b6040516323b872dd60e01b602082019081526001600160a01b03938416602483015293909216604483015260648201939093525f928392909183906124e18160848101610912565b51925af16124ed6120ad565b8161254c575b50156124fb57565b60405162461bcd60e51b8152602060048201526024808201527f5472616e7366657248656c7065723a205452414e534645525f46524f4d5f46416044820152631253115160e21b6064820152608490fd5b8051801592508215612561575b50505f6124f3565b612574925060208091830101910161207a565b5f80612559565b9260209260a09592855283850152600180861b03166040840152608060608401528051918291826080860152018484015e5f828201840152601f01601f1916010190565b602093929091905f907f0000000000000000000000000000000000000000000000000000000000000000825b84515f198101908111611f055781101561272f576001600160a01b036126118287611faa565b51169060018101808211611f05576001600160a01b036126318289611faa565b51166126486126408286612beb565b50928a611faa565b51916001600160a01b03168403612728575f91935b88516001198101908111611f055784101561271e5760028401808511611f05576126b2906126a1906001600160a01b0390612698908d611faa565b511684896123e3565b925b6001600160a01b0392886123e3565b16604051946126c18d87611d73565b5f865288368e880137813b15610544575f80946126f46040519889968795869463022c0d9f60e01b86526004860161257b565b03925af1918215611b685760019261270e575b50016125eb565b5f61271891611d73565b5f612707565b6126b287926126a3565b5f9361265d565b5050505050509050565b9291909261274b6002835110156122ba565b6127558251612306565b9384515f198101908111611f055761276d9086611faa565b5281515f198101908111611f0557805b61278657505050565b5f198101818111611f05576127c36001600160a01b036127a68387611faa565b51166001600160a01b036127ba8588611faa565b51169085612f02565b6127cd8489611faa565b5191821561285d5782816127f192151580612854575b6127ec90612171565b6121ce565b916103e88302928084046103e81490151715611f055761281091611ef8565b6103e58102908082046103e51490151715611f055761282e916121e1565b9060018201809211611f05576128449087611faa565b528015611f05575f19018061277d565b508315156127e3565b60405162461bcd60e51b815260206004820152602c60248201527f556e697377617056324c6962726172793a20494e53554646494349454e545f4f60448201526b155514155517d05353d5539560a21b6064820152608490fd5b51906001600160701b038216820361054457565b90816060910312610544576128df816128b7565b9160406128ee602084016128b7565b92015163ffffffff811681036105445790565b602092917f0000000000000000000000000000000000000000000000000000000000000000915f91825b82515f198101908111611f0557811015612b62576001600160a01b036129518285611faa565b51169060018101808211611f05576001600160a01b03906129729086611faa565b51169161297f8382612beb565b506001600160a01b0361299385848b6123e3565b1660405192630240bc6b60e21b8452606084600481855afa928315611b68578c5f955f95612b1f575b506001600160a01b0390911682149492936024936001600160701b039182169291168615612b195791925b604051948580926370a0823160e01b82528860048301525afa928315611b68575f93612ae8575b50612a1c81612a2194611ef8565b6121ff565b9115612ae1575f91935b86516001198101908111611f0557841015612ad9576002840190818511611f0557612a6c916001600160a01b0390612a63908a611faa565b5116908a6123e3565b905b60405194612a7c8c87611d73565b5f865288368d880137813b15610544575f8094612aaf6040519889968795869463022c0d9f60e01b86526004860161257b565b03925af1918215611b6857600192612ac9575b500161292b565b5f612ad391611d73565b5f612ac2565b508490612a6e565b5f93612a2b565b92508c83813d8311612b12575b612aff8183611d73565b8101031261054457915191612a1c612a0e565b503d612af5565b926129e7565b6001600160701b0396506024949550612b4f879160603d8111612b5b575b612b478183611d73565b8101906128cb565b509097509594506129bc565b503d612b3d565b50505050509050565b8015612b9857611e5d92612b8a9183151580612b8f576127ec90612171565b6121e1565b508115156127e3565b60405162461bcd60e51b815260206004820152602560248201527f556e697377617056324c6962726172793a20494e53554646494349454e545f416044820152641353d5539560da1b6064820152608490fd5b9091906001600160a01b03808416908216808214612c67571015612c6257915b906001600160a01b03831615612c1d57565b60405162461bcd60e51b815260206004820152601e60248201527f556e697377617056324c6962726172793a205a45524f5f4144445245535300006044820152606490fd5b612c0b565b60405162461bcd60e51b815260206004820152602560248201527f556e697377617056324c6962726172793a204944454e544943414c5f41444452604482015264455353455360d81b6064820152608490fd5b9081602091031261054457516001600160a01b03811681036105445790565b60405163e6a4390560e01b81526001600160a01b03828116600483015283811660248301529396949594937f0000000000000000000000000000000000000000000000000000000000000000908116939291602081604481885afa908115611b68575f91612ee3575b506001600160a01b031615612e6b575b612d5c9350612f02565b9290801580612e63575b15612d7357505050509091565b612d8284828897959697612b6b565b94838611612deb57505050508110612d98579091565b60405162461bcd60e51b815260206004820152602560248201527f556e69737761705632526f757465723a494e53554646494349454e545f425f416044820152641353d5539560da1b6064820152608490fd5b83612e06949650612dfd939550612b6b565b93841115612092565b8210612e10579091565b60405162461bcd60e51b815260206004820152602560248201527f556e69737761705632526f757465723a494e53554646494349454e545f415f416044820152641353d5539560da1b6064820152608490fd5b508315612d66565b6040516364e329cb60e11b81526001600160a01b0383811660048301528416602482015293602090859060449082905f905af1938415611b6857612d5c94612eb4575b50612d52565b612ed59060203d602011612edc575b612ecd8183611d73565b810190612cba565b505f612eae565b503d612ec3565b612efc915060203d602011612edc57612ecd8183611d73565b5f612d42565b906060600492612f27612f158685612beb565b50956001600160a01b039285906123e3565b1660405193848092630240bc6b60e21b82525afa918215611b68575f905f93612f74575b506001600160701b03928316939216916001600160a01b03918216911603612f705791565b9091565b6001600160701b039350839150612f999060603d606011612b5b57612b478183611d73565b5093909150612f4b56fea2646970667358221220350d412a4ba5620f4d61665e3cadac72f7a074d905c9ec9f7233966a900aa38f64736f6c634300081e0033","linkReferences":{}},"methodIdentifiers":{"WETH()":"ad5c4648","addLiquidity(address,address,uint256,uint256,uint256,uint256,address,uint256)":"e8e33700","addLiquidityETH(address,uint256,uint256,uint256,address,uint256)":"f305d719","factory()":"c45a0155","getAmountIn(uint256,uint256,uint256)":"85f8c259","getAmountOut(uint256,uint256,uint256)":"054d50d4","getAmountsIn(uint256,address[])":"1f00ca74","getAmountsOut(uint256,address[])":"d06ca61f","quote(uint256,uint256,uint256)":"ad615dec","removeLiquidity(address,address,uint256,uint256,uint256,address,uint256)":"baa2abde","removeLiquidityETH(address,uint256,uint256,uint256,address,uint256)":"02751cec","removeLiquidityETHWithPermit(address,uint256,uint256,uint256,address,uint256,bool,uint8,bytes32,bytes32)":"ded9382a","removeLiquidityWithPermit(address,address,uint256,uint256,uint256,address,uint256,bool,uint8,bytes32,bytes32)":"2195995c","swapETHForExactTokens(uint256,address[],address,uint256)":"fb3bdb41","swapExactETHForTokens(uint256,address[],address,uint256)":"7ff36ab5","swapExactETHForTokensSupportingFeeOnTransferTokens(uint256,address[],address,uint256)":"b6f9de95","swapExactTokensForETH(uint256,uint256,address[],address,uint256)":"18cbafe5","swapExactTokensForETHSupportingFeeOnTransferTokens(uint256,uint256,address[],address,uint256)":"791ac947","swapExactTokensForTokens(uint256,uint256,address[],address,uint256)":"38ed1739","swapExactTokensForTokensSupportingFeeOnTransferTokens(uint256,uint256,address[],address,uint256)":"5c11d795","swapTokensForExactETH(uint256,uint256,address[],address,uint256)":"4a25d94a","swapTokensForExactTokens(uint256,uint256,address[],address,uint256)":"8803dbee"},"id":31}