{"abi":[{"type":"constructor","inputs":[{"name":"_feeToSetter","type":"address","internalType":"address"}],"stateMutability":"nonpayable"},{"type":"function","name":"INIT_CODE_PAIR_HASH","inputs":[],"outputs":[{"name":"","type":"bytes32","internalType":"bytes32"}],"stateMutability":"view"},{"type":"function","name":"allPairs","inputs":[{"name":"","type":"uint256","internalType":"uint256"}],"outputs":[{"name":"","type":"address","internalType":"address"}],"stateMutability":"view"},{"type":"function","name":"allPairsLength","inputs":[],"outputs":[{"name":"","type":"uint256","internalType":"uint256"}],"stateMutability":"view"},{"type":"function","name":"createPair","inputs":[{"name":"tokenA","type":"address","internalType":"address"},{"name":"tokenB","type":"address","internalType":"address"}],"outputs":[{"name":"pair","type":"address","internalType":"address"}],"stateMutability":"nonpayable"},{"type":"function","name":"feeTo","inputs":[],"outputs":[{"name":"","type":"address","internalType":"address"}],"stateMutability":"view"},{"type":"function","name":"feeToSetter","inputs":[],"outputs":[{"name":"","type":"address","internalType":"address"}],"stateMutability":"view"},{"type":"function","name":"getPair","inputs":[{"name":"","type":"address","internalType":"address"},{"name":"","type":"address","internalType":"address"}],"outputs":[{"name":"","type":"address","internalType":"address"}],"stateMutability":"view"},{"type":"function","name":"setFeeTo","inputs":[{"name":"_feeTo","type":"address","internalType":"address"}],"outputs":[],"stateMutability":"nonpayable"},{"type":"function","name":"setFeeToSetter","inputs":[{"name":"_feeToSetter","type":"address","internalType":"address"}],"outputs":[],"stateMutability":"nonpayable"},{"type":"event","name":"PairCreated","inputs":[{"name":"token0","type":"address","indexed":true,"internalType":"address"},{"name":"token1","type":"address","indexed":true,"internalType":"address"},{"name":"pair","type":"address","indexed":false,"internalType":"address"},{"name":"","type":"uint256","indexed":false,"internalType":"uint256"}],"anonymous":false}],"bytecode":{"object":"0x608034607057601f6125de38819003918201601f19168301916001600160401b03831184841017607457808492602094604052833981010312607057516001600160a01b03811690819003607057600180546001600160a01b03191691909117905560405161255590816100898239f35b5f80fd5b634e487b7160e01b5f52604160045260245ffdfe60806040526004361015610011575f80fd5b5f3560e01c8063017e7e58146100a4578063094b74151461009f5780631e3dd18b1461009a578063574f2ba3146100955780635855a25a14610090578063a2e74af61461008b578063c9c6539614610086578063e6a43905146100815763f46901ed1461007c575f80fd5b61055d565b61050c565b6102ae565b610261565b6101c1565b610159565b6100ff565b6100d7565b346100c9575f3660031901126100c9575f546001600160a01b03166080908152602090f35b5f80fd5b5f9103126100c957565b346100c9575f3660031901126100c9576001546040516001600160a01b039091168152602090f35b346100c95760203660031901126100c9576004356003548110156100c95760035f527fc2575a0e9e593c00f959f8c92f12db2869c3395a3b0502d05e2516446f71f85b01546040516001600160a01b039091168152602090f35b346100c9575f3660031901126100c9576020600354604051908152f35b634e487b7160e01b5f52604160045260245ffd5b90601f8019910116810190811067ffffffffffffffff8211176101ac57604052565b610176565b906101bf604051928361018a565b565b346100c9575f3660031901126100c957610231611dd3604051906101e8602082018361018a565b808252602082019061074d823961021e6020604051809382820195518091875e81015f838201520301601f19810183528261018a565b5190206040519081529081906020820190565b0390f35b600435906001600160a01b03821682036100c957565b602435906001600160a01b03821682036100c957565b346100c95760203660031901126100c95761027a610235565b60015490610292336001600160a01b038416146105ac565b6001600160a01b03166001600160a01b03199190911617600155005b346100c95760403660031901126100c9576102c7610235565b6102cf61024b565b906001600160a01b038083169082166102ea818314156105ee565b101561050757905b6001600160a01b0382169061030882151561063a565b61036361035d6103516103448461032f8860018060a01b03165f52600260205260405f2090565b9060018060a01b03165f5260205260405f2090565b546001600160a01b031690565b6001600160a01b031690565b1561067f565b611dd3610372602082016101b1565b90808252602082019061074d8239604051606086811b6bffffffffffffffffffffffff19908116602084019081529186901b16603483015260288252906103ba60488261018a565b5190209151905ff56001600160a01b03811693909290843b156100c95760405163485cc95560e01b81526001600160a01b03828116600483015284166024820152945f908690604490829084905af194851561050257610445610480928692610231986104e8575b50610464836104458861032f8560018060a01b03165f52600260205260405f2090565b80546001600160a01b0319166001600160a01b03909216919091179055565b6001600160a01b0386165f90815260026020526040902061032f565b610489836106ce565b600354604080516001600160a01b038681168252602082019390935293909116927f0d3648bd0f6ba80134a33ba9275ac585d9d315f0ad8355cddefde31afa28d0e99190a36040516001600160a01b0390911681529081906020820190565b806104f65f6104fc9361018a565b806100cd565b5f610422565b6106c3565b6102f2565b346100c95760403660031901126100c9576020610527610235565b61052f61024b565b6001600160a01b039182165f9081526002845260408082209284168252602092909252205416604051908152f35b346100c95760203660031901126100c957610576610235565b61058b60018060a01b036001541633146105ac565b5f80546001600160a01b0319166001600160a01b0392909216919091179055005b156105b357565b60405162461bcd60e51b81526020600482015260136024820152722ab734b9bbb0b82b191d2327a92124a22222a760691b6044820152606490fd5b156105f557565b60405162461bcd60e51b815260206004820152601b60248201527f556e697377617056323a4944454e544943414c5f4144445245535300000000006044820152606490fd5b1561064157565b60405162461bcd60e51b8152602060048201526016602482015275556e697377617056323a5a45524f5f4144445245535360501b6044820152606490fd5b1561068657565b60405162461bcd60e51b8152602060048201526015602482015274556e697377617056323a504149525f45584953545360581b6044820152606490fd5b6040513d5f823e3d90fd5b600354680100000000000000008110156101ac57600181016003556003548110156107385760035f527fc2575a0e9e593c00f959f8c92f12db2869c3395a3b0502d05e2516446f71f85b0180546001600160a01b0319166001600160a01b03909216919091179055565b634e487b7160e01b5f52603260045260245ffdfe6080604052346100ef576040516100176040826100f3565b600a8152692ab734b9bbb0b8102b1960b11b602090910152604080517fbfcc8ef98ffbf7b6c3fec7bf5185b566b9863e35a9d83acd49ad6824b59697389161005f90826100f3565b600181526020810190603160f81b82525190206040519060208201927f8b73c3c69bb8fe3d512ecc4cf759cc79239f7b179b0ffacaa9a75d522b39400f8452604083015260608201524660808201523060a082015260a081526100c360c0826100f3565b5190206003556001600c55600580546001600160a01b03191633179055604051611ca8908161012b8239f35b5f80fd5b601f909101601f19168101906001600160401b0382119082101761011657604052565b634e487b7160e01b5f52604160045260245ffdfe60806040526004361015610011575f80fd5b5f5f3560e01c8063022c0d9f1461105757806306fdde03146110115780630902f1ac14610fd0578063095ea7b314610fa95780630dfe168114610f8057806318160ddd14610f6357806323b872dd14610eb757806330adf81f14610e7c578063313ce56714610e605780633644e51514610e42578063485cc95514610d8d5780635909c0d514610d6f5780635a3d549314610d515780636a62784214610a5057806370a0823114610a175780637464fc3d146109f95780637ecebe00146109c057806389afcb441461070b57806395d89b41146106c5578063a9059cbb14610693578063ba9a7a5614610676578063bc25cf7714610527578063c45a0155146104fe578063d21220a7146104d5578063d505accf146102da578063dd62ed3e146102875763fff6cae914610143575f80fd5b346102845780600319360112610284576101616001600c54146115bf565b600c8190556006546040516370a0823160e01b815230600482015290602090829060249082906001600160a01b03165afa8015610279578290610246575b6007546040516370a0823160e01b81523060048201529250602090839060249082906001600160a01b03165afa90811561023b578391610201575b6101f99250600854916001600160701b03808460701c1693169161182d565b6001600c5580f35b90506020823d602011610233575b8161021c6020938361155f565b8101031261022f576101f99151906101da565b5f80fd5b3d915061020f565b6040513d85823e3d90fd5b506020813d602011610271575b816102606020938361155f565b8101031261022f576024905161019f565b3d9150610253565b6040513d84823e3d90fd5b80fd5b50346102845760403660031901126102845760406102a3611533565b916102ac611549565b9260018060a01b031681526002602052209060018060a01b03165f52602052602060405f2054604051908152f35b50346102845760e0366003190112610284576102f4611533565b6102fc611549565b6044359060643560843560ff81168091036104d157428210610498576003546001600160a01b03861680885260046020526040882080549194905f198314610484579282602095928b95600160809601905560405190878201927f6e71edae12b1b97f4d1f60370fef10105fa2faae0126114a169c64845d6126c9845289604084015260018060a01b038b1660608401528b8784015260a083015260c082015260c081526103ab60e08261155f565b519020604051908682019261190160f01b845260228301526042820152604281526103d760628261155f565b519020906040519182528482015260a435604082015260c435606082015282805260015afa156104795784516001600160a01b031680151591908261046f575b50501561042a57610427926119a6565b80f35b60405162461bcd60e51b815260206004820152601c60248201527f556e697377617056323a20494e56414c49445f5349474e4154555245000000006044820152606490fd5b1490505f80610417565b6040513d86823e3d90fd5b634e487b7160e01b8a52601160045260248afd5b60405162461bcd60e51b8152602060048201526011602482015270155b9a5cddd85c158c8e91561412549151607a1b6044820152606490fd5b8580fd5b50346102845780600319360112610284576007546040516001600160a01b039091168152602090f35b50346102845780600319360112610284576005546040516001600160a01b039091168152602090f35b503461028457602036600319011261028457610541611533565b61054f6001600c54146115bf565b600c8290556006546007546040516370a0823160e01b81523060048201526001600160a01b0391821692909116602082602481845afa91821561066b5784908693610633575b506105af6105b5936001600160701b0360085416906115fe565b91611672565b6040516370a0823160e01b815230600482015291602083602481855afa9283156104795784936105fd575b506105af6101f9936001600160701b0360085460701c16906115fe565b92506020833d60201161062b575b816106186020938361155f565b8101031261022f579151916105af6105e0565b3d915061060b565b9250506020823d602011610663575b8161064f6020938361155f565b8101031261022f57905190836105af610595565b3d9150610642565b6040513d87823e3d90fd5b503461028457806003193601126102845760206040516103e88152f35b5034610284576040366003190112610284576106ba6106b0611533565b60243590336119ff565b602060405160018152f35b5034610284578060031936011261028457506107076040516106e860408261155f565b60068152652aa72496ab1960d11b602082015260405191829182611595565b0390f35b503461028457602036600319011261028457610725611533565b906107346001600c54146115bf565b80600c5561074061161f565b506006546007546040516370a0823160e01b8152306004820152956001600160a01b03928316959490939190921691602087602481895afa96871561066b57859761098c575b506040516370a0823160e01b815230600482015295602087602481875afa968715610981578697610945575b5090866107f297988795949330875260016020526107f8826107ed60408a20549d8e9d8e6107ed6107e38c8c611a6d565b9d54958692611641565b611654565b9d611641565b988a15158061093c575b156108e757886108749761086a8d60409f61086f968f9686923082526001602052604081610832918420546115fe565b3083526001602052604083205561084a8183546115fe565b82556040519081525f516020611c535f395f51905f5260203092a3611672565b611672565b61182d565b6108c4575b83519083825282602083015260018060a01b0316907fdccd412f0b1252819cb1fd330b93224ca42612892bb3f4f789976e6d81936496853392a36001600c5582519182526020820152f35b6108df6008546001600160701b03808260701c169116611641565b600b55610879565b60405162461bcd60e51b815260206004820152602760248201527f556e697377617056323a494e53554646494349454e545f4c495155494449545960448201526617d0955493915160ca1b6064820152608490fd5b50891515610802565b9392919096506020843d602011610979575b816109646020938361155f565b8101031261022f5792519591929091856107b2565b3d9150610957565b6040513d88823e3d90fd5b9096506020813d6020116109b8575b816109a86020938361155f565b8101031261022f5751955f610786565b3d915061099b565b5034610284576020366003190112610284576020906040906001600160a01b036109e8611533565b168152600483522054604051908152f35b50346102845780600319360112610284576020600b54604051908152f35b5034610284576020366003190112610284576020906040906001600160a01b03610a3f611533565b168152600183522054604051908152f35b503461028457602036600319011261028457602490610a6d611533565b610a7b6001600c54146115bf565b81600c55610a8761161f565b506006546040516370a0823160e01b8152306004820152959293919260209187919082906001600160a01b03165afa948515610479578495610d1c575b506007546040516370a0823160e01b81523060048201529190602090839060249082906001600160a01b03165afa91821561066b578592610ce8575b506001600160701b03841692610b1684886115fe565b946001600160701b03821693610b2c85826115fe565b95610b378484611a6d565b9589549182155f14610cb057505050610b508688611641565b6103e7198101908111610c9c57610b6690611bab565b9780546103e88101809111610c88578155808052600160205260408120546103e88101809111610c885781805260016020526040822055805f516020611c535f395f51905f5260206040516103e88152a35b8715610c335760209861086f89610bce96611c00565b610c10575b604051918252838201527f4c209b5fc8ad50758f13e2e1088ba56a560dff690a1c6fef26394f4c03821c4f60403392a26001600c55604051908152f35b610c2b6008546001600160701b03808260701c169116611641565b600b55610bd3565b60405162461bcd60e51b815260206004820152602760248201527f556e697377617056323a496e73756666696369656e745f4c697175696469747960448201526617d35a5b9d195960ca1b6064820152608490fd5b634e487b7160e01b82526011600452602482fd5b634e487b7160e01b89526011600452602489fd5b906107ed610cc8610ccf936107ed86979e968e611641565b948a611641565b905080821015610ce157505b96610bb8565b9050610cdb565b9091506020813d602011610d14575b81610d046020938361155f565b8101031261022f5751905f610b00565b3d9150610cf7565b9094506020813d602011610d49575b81610d386020938361155f565b8101031261022f5751936024610ac4565b3d9150610d2b565b50346102845780600319360112610284576020600a54604051908152f35b50346102845780600319360112610284576020600954604051908152f35b503461028457604036600319011261028457610da7611533565b610daf611549565b6005549091906001600160a01b03163303610e075760018060a01b03166bffffffffffffffffffffffff60a01b600654161760065560018060a01b03166bffffffffffffffffffffffff60a01b600754161760075580f35b60405162461bcd60e51b81526020600482015260136024820152722ab734b9bbb0b82b191d2327a92124a22222a760691b6044820152606490fd5b50346102845780600319360112610284576020600354604051908152f35b5034610284578060031936011261028457602060405160128152f35b503461028457806003193601126102845760206040517f6e71edae12b1b97f4d1f60370fef10105fa2faae0126114a169c64845d6126c98152f35b5034610284576060366003190112610284576106ba90610ed5611533565b610edd611549565b6001600160a01b038216808452600260209081526040808620335f90815292529020546044359492939290600101610f17575b50506119ff565b808260409252600260205281812060018060a01b0333165f52602052610f4086835f20546115fe565b92815260026020522060018060a01b0333165f5260205260405f20555f80610f10565b503461028457806003193601126102845760209054604051908152f35b50346102845780600319360112610284576006546040516001600160a01b039091168152602090f35b5034610284576040366003190112610284576106ba610fc6611533565b60243590336119a6565b503461028457806003193601126102845760606001600160701b0363ffffffff610ff861161f565b9193908160405195168552166020840152166040820152f35b50346102845780600319360112610284575061070760405161103460408261155f565b600a8152692ab734b9bbb0b8102b1960b11b602082015260405191829182611595565b503461022f57608036600319011261022f57604435906001600160a01b03821660043560243582850361022f576064359167ffffffffffffffff831161022f573660238401121561022f57826004013567ffffffffffffffff811161022f57366024828601011161022f576110d06001600c54146115bf565b5f600c558115918215809361152a575b156114d9576110ed61161f565b509390926001600160701b03841696878410806114c7575b15611483576006546007546001600160a01b039182169c9116938a8d141580611479575b1561143d5785828e9261142c575b505050878061141b575b505081611386575b5050602060249596979899604051968780926370a0823160e01b82523060048301525afa94851561134457899561134f575b50906020602492604051938480926370a0823160e01b82523060048301525afa918215611344578992611310575b506111b481886115fe565b851115611308576111c86111ce91886115fe565b856115fe565b955b6001600160701b038416956111e581886115fe565b831115611300576111f96111ff91886115fe565b836115fe565b955b87158015906112f7575b156112a657620f4240910202600386026103e8830203600388026103e887020302106112735761123a9361182d565b60405191825260208201527f2a9237ff5aa599ef4c5ee4b1142b53429d5755e2685fe6288b2e3320202115f560403392a36001600c5580f35b60405162461bcd60e51b815260206004820152600b60248201526a556e697377617056323a4b60a81b6044820152606490fd5b60405162461bcd60e51b815260206004820152602360248201527f556e697377617056323a494e53554646494349454e545f494e5055545f414d4f60448201526215539560ea1b6064820152608490fd5b5086151561120b565b508895611201565b5087956111d0565b9091506020813d60201161133c575b8161132c6020938361155f565b8101031261022f5751905f6111a9565b3d915061131f565b6040513d8b823e3d90fd5b919094506020823d60201161137e575b8161136c6020938361155f565b8101031261022f57905193602061117b565b3d915061135f565b883b1561022f57602460a45f928460405195869485936304347a1760e21b85523360048601528a828601528d60448601526080606486015282608486015201848401378181018301859052601f01601f19168101030181838c5af18015611410576113f2575b80611149565b602495969798505f6114039161155f565b60205f98979695506113ec565b6040513d5f823e3d90fd5b6114259185611672565b5f87611141565b61143592611672565b8b8582611137565b60405162461bcd60e51b8152602060048201526014602482015273556e697377617056323a494e56414c49445f544f60601b6044820152606490fd5b50848b1415611129565b606460405162461bcd60e51b815260206004820152602060248201527f556e697377617056323a494e53554646494349454e545f4c49515549444954596044820152fd5b506001600160701b0386168710611105565b60405162461bcd60e51b8152602060048201526024808201527f556e697377617056323a494e53554646494349454e545f4f55545055545f414d60448201526313d5539560e21b6064820152608490fd5b508315156110e0565b600435906001600160a01b038216820361022f57565b602435906001600160a01b038216820361022f57565b90601f8019910116810190811067ffffffffffffffff82111761158157604052565b634e487b7160e01b5f52604160045260245ffd5b602060409281835280519182918282860152018484015e5f828201840152601f01601f1916010190565b156115c657565b60405162461bcd60e51b815260206004820152601060248201526f155b9a5cddd85c158c8e931bd8dad95960821b6044820152606490fd5b9190820391821161160b57565b634e487b7160e01b5f52601160045260245ffd5b6008546001600160701b038116916001600160701b038260701c169160e01c90565b8181029291811591840414171561160b57565b811561165e570490565b634e487b7160e01b5f52601260045260245ffd5b5f9192908291826040956020875161168a898261155f565b601981527f7472616e7366657228616464726573732c75696e743235362900000000000000910152865163a9059cbb60e01b602082019081526001600160a01b039092166024820152604480820194909452928352916116eb60648261155f565b51925af13d156117b0573d67ffffffffffffffff81116115815782519061171c601f8201601f19166020018361155f565b81523d5f602083013e5b81611778575b50156117355750565b5162461bcd60e51b815260206004820152601960248201527f556e697377617056323a5472616e736665725f4661696c6564000000000000006044820152606490fd5b805180159250821561178d575b50505f61172c565b819250906020918101031261022f5760200151801515810361022f575f80611785565b6060611726565b6001600160701b03670de0b6b3a7640000911602906001600160701b03821691820361160b57565b906001600160701b03809116911602906001600160701b03821691820361160b57565b906001600160701b031690811561165e576001600160701b03160490565b9190820180921161160b57565b92916001600160701b0384111580611996575b1561195c57600854938460e01c63ffffffff4216039063ffffffff821161160b577f1c411e9a96e071241c2f21f7726b17ae89e3cab4c78be50e062b03a9fffbbad1956040956001600160701b039463ffffffff869516918215159182611950575b5081611944575b506118e2575b505016918263ffffffff60e01b4260e01b16918360701b9060701b16171780600855835192835260701c166020820152a1565b61193184916119168461192c8561193a9760701c16916119248761191b876119168361190d896117b7565b96168096611802565b6117df565b16600954611820565b6009556117b7565b611802565b16600a54611820565b600a555f806118af565b8591501615155f6118a9565b8616151591505f6118a2565b60405162461bcd60e51b8152602060048201526012602482015271556e697377617056323a4f564552464c4f5760701b6044820152606490fd5b506001600160701b038210611840565b6001600160a01b039081165f8181526002602090815260408083209590941680835294815290839020859055915193845291927f8c5be1e5ebec7d5bd14f71427d1e84f3dd0314c0f7b2291e5b200ac8c7c3b9259190a3565b60205f516020611c535f395f51905f529160018060a01b031692835f5260018252611a2e8560405f20546115fe565b845f526001835260405f205560018060a01b031693845f5260018252611a588160405f2054611820565b855f526001835260405f2055604051908152a3565b600554604051622fcfcb60e31b81529293929190602090839060049082906001600160a01b03165afa918215611410575f92611b67575b50600b546001600160a01b03831615801595919290611b575782611ac9575b50505050565b611ae5611aea916001600160701b0380611af095169116611641565b611bab565b91611bab565b90818111611aff575b80611ac3565b611b145f54611b0e84846115fe565b90611641565b9060058102908082046005149015171561160b57611b3b92611b3591611820565b90611654565b80611b47575b80611af9565b611b5091611c00565b5f80611b41565b50509050611b6157565b5f600b55565b9091506020813d602011611ba3575b81611b836020938361155f565b8101031261022f57516001600160a01b038116810361022f57905f611aa4565b3d9150611b76565b905f6003831115611bf35750818060011c6001810180911161160b57905b838210611bd4575050565b909250611bea83611be58184611654565b611820565b60011c90611bc9565b91611bfa57565b60019150565b5f516020611c535f395f51905f5260205f92611c1d858554611820565b845560018060a01b03169384845260018252611c3d816040862054611820565b858552600183526040852055604051908152a356feddf252ad1be2c89b69c2b068fc378daa952ba7f163c4a11628f55a4df523b3efa26469706673582212204b23587e3d3648385e9e7f60ee98cd328a0e4ded747f9b1ec6fc663218471cbf64736f6c634300081e0033a26469706673582212202265087a880dbac91a616379d9b8c0ea0f001bd3411ae5e6f9ccc21cc526f96564736f6c634300081e0033","linkReferences":{}},"methodIdentifiers":{"INIT_CODE_PAIR_HASH()":"5855a25a","allPairs(uint256)":"1e3dd18b","allPairsLength()":"574f2ba3","createPair(address,address)":"c9c65396","feeTo()":"017e7e58","feeToSetter()":"094b7415","getPair(address,address)":"e6a43905","setFeeTo(address)":"f46901ed","setFeeToSetter(address)":"a2e74af6"},"id":22}